:020000020000FC
:1000000014C0189518951895189518951895189561
:100010001895189518951895189518951895189578
:10002000189518951895189518950FE50DBF02E0CD
:100030000EBF07E001BB13953395212F9098919A3D
:100040003AD0909A9198212F209535D03F3FA1F733
:100050001E3F89F711279098919A2FEF31D03327BF
:1000600013953395212F9198929A25D0919A929831
:10007000212F209520D03F3FA1F71E3F89F7112760
:100080009198929A2FEF1CD0332713953395212FF7
:100090009298909A10D0929A9098212F20950BD0F8
:1000A0003F3FA1F71E3F89F711279298909A2FEFB3
:1000B00007D03327C0CF2A9510D02030E1F708951C
:1000C0004FE253ED61EF6A95F1F75A95D9F74A95EA
:1000D000C1F747E24A95F1F708954AE04A95F1F7EA
:0200E000089581
:00000001FF
