:020000020000FC
:1000000012C0189518951895189518951895189563
:100010001895189518951895189518951895189578
:100020001895189518950FE50DBF04E00EBF0FEF5A
:1000300001BB03E107BB08E304BB03E005BB00E42D
:100040000DB9C19853D0C19AC09A00E047D002E3DD
:100050003DD001E043D007E039D002E03FD00DE1D0
:1000600035D003E03BD00FE731D004E037D000E0DB
:100070002DD008E033D000E029D009E02FD000E0F7
:1000800025D00AE02BD000E021D00BE027D000E003
:100090001DD020E82A953EE13A950CE01FD000E003
:1000A00015D03030C9F72030A9F70AE017D000E0AA
:1000B0000DD00BE013D000E009D008E304BB03E04F
:1000C00005BB999B19D0989B1BD0F7CFAC98AB98E8
:1000D000AD9A02BBAD98C09A09D00895C098AC986B
:1000E000AB9AAD9A02BBAD9801D008951AE11A956A
:1000F000F1F700000000089507D0042FEFDF089506
:1001000003D0042FE3DF0895779BFECF4FB108950E
:00000001FF
