:020000020000FC
:1000000014C0189518951895189518951895189561
:100010001EC0189518951895189518951895189547
:10002000189518951895189518950FE50DBF02E0CD
:100030000EBF01E00ABB04E00EBD04E009BFECE71F
:10004000F0E01FEF23EE41E055277894FFCF639552
:100050006F3F71F01DBD2CBD54275BBB1895C89533
:10006000102D3196C895202D3196103021F018951D
:10007000F6DF6627189500E009BF1895FFD4FFD872
:0A008000FFDCFFDFFF00FF000000BF
:00000001FF
