:020000020000FC
:1000000008C01FC018951895189515C01895189513
:10001000189500E40ABF03E005BF00E40BBF02E04F
:1000200009BF06E003BF0BE107BB04E008BB1127D3
:10003000789400C0FFCFC19902C0C19A1895C198A9
:1000400018951395113059F0123069F0133079F08A
:10005000143089F0153099F01630A9F01895C09A2F
:10006000C498C3981895C09AC49AC3981895C09814
:10007000C49AC3981895C098C49AC39A1895C09802
:10008000C498C39A1895C09AC498C39A1127189512
:00000001FF
