:020000020000FC
:1000000014C0189518951895189518951895189561
:100010001895189518951895189518951895189578
:10002000189518951895189518950FE50DBF02E0CD
:100030000EBF0FEF01BB0FEF07BB0FEF04BBB7D035
:10004000B6D0B5D0B4D0B3D0B2D0B1D0B0D0AFD09C
:10005000AED0ADD04FEFA2D041E9A0D041E99ED0C3
:1000600041E99CD04FEF9AD092D0AAD0A9D04FEFBF
:1000700042BB4FEF48BBA4D049E842BB49E848BB6C
:100080009FD049E842BB49E848BB9AD049E842BB07
:1000900049E848BB95D049E842BB49E848BB90D005
:1000A00076D08ED08DD04FE37CD048E47AD048E82B
:1000B00078D048E476D04FE374D069D081D080D036
:1000C00041E045BB40EC48BB7BD041E045BB40E84C
:1000D00048BB76D04FEF45BB4FEF48BB71D041E0F6
:1000E00045BB40E848BB6CD041E045BB40EC48BB59
:1000F00067D04DD065D064D04FEF56D049E854D08A
:1001000049E852D049E850D046E74ED040D058D0C8
:1001100057D04EE745BB4EE742BB52D041E845BB06
:1001200041E842BB4DD041E845BB41E842BB48D025
:1001300041E845BB41E842BB43D04EE745BB4EE7F3
:1001400042BB3ED024D03CD03BD041E845BB41E847
:1001500048BB42BB35D042E445BB42E448BB42BB4E
:100160002FD04CE345BB4CE348BB42BB29D042E413
:1001700045BB42E448BB42BB23D041E845BB41E814
:1001800048BB42BB1DD003D01BD01AD058CF00E0D3
:1001900008BB00E005BB00E002BB089542BB10D0E5
:1001A000089548BB0DD0089545BB0AD008951FE1BE
:1001B00025E52A95F1F71A95D9F700000000089572
:1001C0001FE125E52A95F1F71A95D9F700000000FF
:0E01D000089598E09A9541839030E1F70895E4
:00000001FF
