:1000000094C000C000C000C000C000C000C000C05C
:1000100000C000C000C000C000C000C000C000C0E0
:0600200000C000C000C09A
:10012800BFE5BDBFB4E0BEBF2F92F1DFAADFA7DFF6
:10013800B6B3B3FF06C09EDF202E74DF9BDF202EF0
:060148007DDFF6CFFFCFC2
:10011600BFEFB1BBB3E1B7BBB8E3B4BBB3E0B5BBAC
:0201260008953A
:10008A002F923F92F4DF2224CCDFB2E32B2ED5DF6E
:10009A00B1E02B2EC6DFB7E02B2ECFDFB2E02B2E3E
:1000AA00C0DFBDE12B2EC9DFB3E02B2EBADFBFE7DD
:1000BA002B2EC3DFB4E02B2EB4DF2224BEDFB8E040
:1000CA002B2EAFDF2224B9DFB9E02B2EAADF2224A0
:1000DA00B4DF33242224BDDF20E030E03F932F93A6
:1000EA00BCE02B2E9EDF2224A8DF2F913F913F30C8
:1000FA0009F4203029F089010F5F1F4F9801EECFD4
:0C010A0033242224A6DF3F902F9008959C
:04007800C19A08958C
:10002C00C098AC98AB9AAD9A22BAAD9802E00A95FA
:08003C00F1F700000000089537
:10004400AC98AB98AD9A22BAAD98C09A02E00A95E2
:08005400F1F70000000008951F
:10005C002F922F92BAE02B2EE3DF2F90EDDFBBE037
:0C006C002B2EDEDF232CE8DF2F90089500
:040086006E9A0895D1
:0A007C00779BFECF1FB1012F0895FE
:00000001FF
