:020000020000FC
:1000000012C0189518951895189518951895189563
:100010001895189518951895189518951895189578
:10002000189518951895FFE5FDBFF4E0FEBFF0E0C8
:10003000F4BBF7E0F5BB989B05D0999BB5D19A9B93
:1000400095D2F9CFF0E0F7BBF0E0F8BBF0E0F1BB00
:10005000F0E0F2BBB99AC19A889A9098DCD3F0E0AC
:10006000F7BBF0E0F8BBF0E0F1BBF0E0F2BBB99A0F
:10007000C19A899A9198CFD3F0E0F7BBF0E0F8BB32
:10008000F0E0F1BBF0E0F2BBB99AC19A8A9A92987B
:10009000C2D3F0E0F7BBF0E0F8BBF0E0F1BBF0E07A
:1000A000F2BBB99AC19A8B9A9398B5D3F0E0F7BB9B
:1000B000F0E0F8BBF0E0F1BBF0E0F2BBB99AC19A16
:1000C0008C9A9498A8D3F0E0F7BBF0E0F8BBF0E08E
:1000D000F1BBF0E0F2BBB99AC19A8D9A95989BD387
:1000E000F0E0F7BBF0E0F8BBF0E0F1BBF0E0F2BB12
:1000F000B99AC19A8E9A96988ED3F0E0F7BBF0E049
:10010000F8BBF0E0F1BBF0E0F2BBB99AC19A8F9A6C
:10011000979881D3F0E0F7BBF0E0F8BBF0E0F1BBDB
:10012000F0E0F2BBB89AC09A889A909874D3F0E045
:10013000F7BBF0E0F8BBF0E0F1BBF0E0F2BBB89A3F
:10014000C09A899A919867D3F0E0F7BBF0E0F8BBCA
:10015000F0E0F1BBF0E0F2BBB89AC09A8A9A9298AC
:100160005AD3F0E0F7BBF0E0F8BBF0E0F1BBF0E011
:10017000F2BBB89AC09A8B9A93984DD3F0E0F7BB34
:10018000F0E0F8BBF0E0F1BBF0E0F2BBB89AC09A47
:100190008C9A949840D3F0E0F7BBF0E0F8BBF0E025
:1001A000F1BBF0E0F2BBB89AC09A8D9A959833D320
:1001B000F0E0F7BBF0E0F8BBF0E0F1BBF0E0F2BB41
:1001C000B89AC09A8E9A969826D3F0E0F7BBF0E0E2
:1001D000F8BBF0E0F1BBF0E0F2BBB89AC09A8F9A9E
:1001E000979819D3F0E0F7BBF0E0F8BBF0E0F1BB73
:1001F000F0E0F2BB05D3F0E0F7BBF0E0F8BBF0E0D5
:10020000F1BBF0E0F2BBB89AC09A8F9A979803D3EB
:10021000F0E0F7BBF0E0F8BBF0E0F1BBF0E0F2BBE0
:10022000B89AC09A8E9A9698F6D2F0E0F7BBF0E0B2
:10023000F8BBF0E0F1BBF0E0F2BBB89AC09A8D9A3F
:100240009598E9D2F0E0F7BBF0E0F8BBF0E0F1BB45
:10025000F0E0F2BBB89AC09A8C9A9498DCD2F0E0A5
:10026000F7BBF0E0F8BBF0E0F1BBF0E0F2BBB89A0E
:10027000C09A8B9A9398CFD2F0E0F7BBF0E0F8BB2E
:10028000F0E0F1BBF0E0F2BBB89AC09A8A9A92987B
:10029000C2D2F0E0F7BBF0E0F8BBF0E0F1BBF0E079
:1002A000F2BBB89AC09A899A9198B5D2F0E0F7BBA0
:1002B000F0E0F8BBF0E0F1BBF0E0F2BBB89AC09A16
:1002C000889A9098A8D2F0E0F7BBF0E0F8BBF0E095
:1002D000F1BBF0E0F2BBB99AC19A8F9A97989BD282
:1002E000F0E0F7BBF0E0F8BBF0E0F1BBF0E0F2BB10
:1002F000B99AC19A8E9A96988ED2F0E0F7BBF0E048
:10030000F8BBF0E0F1BBF0E0F2BBB99AC19A8D9A6C
:10031000959881D2F0E0F7BBF0E0F8BBF0E0F1BBDC
:10032000F0E0F2BBB99AC19A8C9A949874D2F0E03A
:10033000F7BBF0E0F8BBF0E0F1BBF0E0F2BBB99A3C
:10034000C19A8B9A939867D2F0E0F7BBF0E0F8BBC4
:10035000F0E0F1BBF0E0F2BBB99AC19A8A9A9298A8
:100360005AD2F0E0F7BBF0E0F8BBF0E0F1BBF0E010
:10037000F2BBB99AC19A899A91984DD2F0E0F7BB35
:10038000F0E0F8BBF0E0F1BBF0E0F2BBB99AC19A43
:10039000889A909840D2F0E0F7BBF0E0F8BBF0E02C
:1003A000F1BBF0E0F2BB0895F0E0F7BBF0E0F8BB82
:1003B000F0E0F1BBF0E0F2BBB89AC09A889A90984E
:1003C0002AD2F0E0F7BBF0E0F8BBF0E0F1BBF0E0E0
:1003D000F2BBB89AC09A899A91981DD2F0E0F7BB07
:1003E000F0E0F8BBF0E0F1BBF0E0F2BBB89AC09AE5
:1003F0008A9A929810D2F0E0F7BBF0E0F8BBF0E0F8
:10040000F1BBF0E0F2BBB89AC09A8B9A939803D2F2
:10041000F0E0F7BBF0E0F8BBF0E0F1BBF0E0F2BBDE
:10042000B89AC09A8C9A9498F6D1F0E0F7BBF0E0B5
:10043000F8BBF0E0F1BBF0E0F2BBB89AC09A8D9A3D
:100440009598E9D1F0E0F7BBF0E0F8BBF0E0F1BB44
:10045000F0E0F2BBB89AC09A8E9A9698DCD1F0E0A0
:10046000F7BBF0E0F8BBF0E0F1BBF0E0F2BBB89A0C
:10047000C09A8F9A9798CFD1F0E0F7BBF0E0F8BB25
:10048000F0E0F1BBF0E0F2BBBBD1F0E0F7BBF0E095
:10049000F8BBF0E0F1BBF0E0F2BBB89AC09A8F9ADB
:1004A0009798B9D1F0E0F7BBF0E0F8BBF0E0F1BB12
:1004B000F0E0F2BBB89AC09A8E9A9698ACD1F0E070
:1004C000F7BBF0E0F8BBF0E0F1BBF0E0F2BBB89AAC
:1004D000C09A8D9A95989FD1F0E0F7BBF0E0F8BBF9
:1004E000F0E0F1BBF0E0F2BBB89AC09A8C9A949815
:1004F00092D1F0E0F7BBF0E0F8BBF0E0F1BBF0E048
:10050000F2BBB89AC09A8B9A939885D1F0E0F7BB6A
:10051000F0E0F8BBF0E0F1BBF0E0F2BBB89AC09AB3
:100520008A9A929878D1F0E0F7BBF0E0F8BBF0E05F
:10053000F1BBF0E0F2BBB89AC09A899A91986BD15E
:10054000F0E0F7BBF0E0F8BBF0E0F1BBF0E0F2BBAD
:10055000B89AC09A889A90985ED1F0E0F7BBF0E024
:10056000F8BBF0E0F1BBF0E0F2BB0895F0E0F7BBC0
:10057000F0E0F8BBF0E0F1BBF0E0F2BBBA9AC29A4F
:10058000889A909848D1F0E0F7BBF0E0F8BBF0E033
:10059000F1BBF0E0F2BBBA9AC29A899A91983BD12A
:1005A000F0E0F7BBF0E0F8BBF0E0F1BBF0E0F2BB4D
:1005B000BA9AC29A8A9A92982ED1F0E0F7BBF0E0EC
:1005C000F8BBF0E0F1BBF0E0F2BBBA9AC29A8B9AAA
:1005D000939821D1F0E0F7BBF0E0F8BBF0E0F1BB7D
:1005E000F0E0F2BBBA9AC29A8C9A949814D1F0E0D7
:1005F000F7BBF0E0F8BBF0E0F1BBF0E0F2BBBA9A79
:10060000C29A8D9A959807D1F0E0F7BBF0E0F8BB5D
:10061000F0E0F1BBF0E0F2BBBA9AC29A8E9A9698DB
:10062000FAD0F0E0F7BBF0E0F8BBF0E0F1BBF0E0AF
:10063000F2BBBA9AC29A8F9A9798EDD0F0E0F7BBC6
:10064000F0E0F8BBF0E0F1BBF0E0F2BBBB9AC39A7C
:10065000889A9098E0D0F0E0F7BBF0E0F8BBF0E0CB
:10066000F1BBF0E0F2BBBB9AC39A899A9198D3D0C0
:10067000F0E0F7BBF0E0F8BBF0E0F1BBF0E0F2BB7C
:10068000B89AC09A8E9A9698C6D0F0E0F7BBF0E080
:10069000F8BBF0E0F1BBF0E0F2BBB89AC09A8F9AD9
:1006A0009798B9D0F0E0F7BBF0E0F8BBF0E0F1BB11
:1006B000F0E0F2BBA5D0F0E0F7BBF0E0F8BBF0E073
:1006C000F1BBF0E0F2BBB89AC09A8F9A9798A3D08A
:1006D000F0E0F7BBF0E0F8BBF0E0F1BBF0E0F2BB1C
:1006E000B89AC09A8E9A969896D0F0E0F7BBF0E050
:1006F000F8BBF0E0F1BBF0E0F2BBBB9AC39A899A79
:10070000919889D0F0E0F7BBF0E0F8BBF0E0F1BBE6
:10071000F0E0F2BBBB9AC39A889A90987CD0F0E044
:10072000F7BBF0E0F8BBF0E0F1BBF0E0F2BBBA9A47
:10073000C29A8F9A97986FD0F0E0F7BBF0E0F8BBC1
:10074000F0E0F1BBF0E0F2BBBA9AC29A8E9A9698AA
:1007500062D0F0E0F7BBF0E0F8BBF0E0F1BBF0E016
:10076000F2BBBA9AC29A8D9A959855D0F0E0F7BB31
:10077000F0E0F8BBF0E0F1BBF0E0F2BBBA9AC29A4D
:100780008C9A949848D0F0E0F7BBF0E0F8BBF0E02A
:10079000F1BBF0E0F2BBBA9AC29A8B9A93983BD025
:1007A000F0E0F7BBF0E0F8BBF0E0F1BBF0E0F2BB4B
:1007B000BA9AC29A8A9A92982ED0F0E0F7BBF0E0EB
:1007C000F8BBF0E0F1BBF0E0F2BBBA9AC29A899AAA
:1007D000919821D0F0E0F7BBF0E0F8BBF0E0F1BB7E
:1007E000F0E0F2BBBA9AC29A889A909814D0F0E0DE
:1007F000F7BBF0E0F8BBF0E0F1BBF0E0F2BB08952E
:1008000008950FE517E129E72A95F1F71A95D9F729
:100810000A95C1F708950FE213ED21EF2A95F1F73C
:100820001A95D9F70A95C1F707E20A95F1F70895E5
:00000001FF
