:020000020000FC
:1000000012C0189518951895189518951895189563
:1000100058C039C0189518951895189518951895C1
:100020001895189518950FE50DBF04E00EBF0FEF5A
:1000300001BB00EF07BB0FE008BB01E009BF05E013
:1000400003BF04E00EBD0027009360000093610031
:1000500000936200BB27CC27DD277894D0FDC59A9A
:1000600000E002BBC6983091600078D07ED0C69A7E
:10007000D0FDC59800E002BBC798309161006ED0FA
:1000800074D0C79AEBCF0091620003950093620091
:10009000003169F4C0FD0CD0B19B39D0B09B2CD09D
:1000A000B39B48D0B29B50D000E0009362001895FB
:1000B000D095B395BC3321F4BB27CC27DD27C59859
:1000C00008950EEE0CBD05E80DBDB395BC3379F770
:1000D000BB27009161000A950093610052D0009106
:1000E000610010916000010F003009F701E009BFC5
:1000F000C498D1E0C1E018950091610010916000B2
:10010000010F0030A1F205E009BFC49A0895C59817
:10011000D0FDDD27C0FDCC27C49809B702FD03D070
:1001200001E009BF089500E00093600000E0009343
:100130006100089509B702FD0895009161000395DB
:10014000009361001ED0089509B702FD0895009143
:1001500061000A950093610014D00895E8E7F1E08A
:10016000E30FC895302D32BB0895EFEFF5E1FA9516
:10017000F1F7EA95D9F708953F065B4F666D7D0765
:100180007F6F00916100109160000F3F19F00A30FD
:1001900041F00EC01A9509E01F3F51F410E000E055
:1001A00007C0139500E01A3019F419E009E000C007
:0A01B00010936000009361000895B1
:00000001FF
