:020000020000FC
:1000000014C0189518951895189518951895189561
:1000100030C02BC0189518951895189518951895F7
:1000200018951895189518951895E2E0EEBFEFE52C
:10003000EDBFE0E0E7BBEFEFE8BBE7E0E1BBE7E007
:10004000EABBE2E0EEBDE4E0E3BFE5E0E9BF32EDAC
:1000500010E021E0E0E0E2BFE0E0EDBDE0E0ECBD7B
:10006000789432D0B09B29D0FCCF13951F3FA1F0DC
:1000700018952BBB04D043951CBD3DBD1895403051
:1000800069F0413069F0423069F0433069F0443042
:1000900069F0453069F008953395189521E0189579
:1000A00023E0189522E0189526E0189524E018958D
:1000B00025E044271895442718955395533099F017
:1000C00014D0B09BFDCF0895513019F0523031F06B
:1000D0000895E4E0E9BFE3E0E2BB0895E5E0E9BFAD
:1000E000E1E0E2BB08955527EBCF61EF7EE08DE9BB
:1000F0008A95F1F77A95D9F76A95C1F700000895C6
:00000001FF
