:020000020000FC
:1000000012C0189518951895189518951895189563
:1000100078C065C0189518951895189582C01895E0
:100020001895189518950FE50DBF04E00EBF0FEF5A
:1000300001BB07E007BB00E004BB0EE105BB01E02C
:1000400009BF05E003BF04E00EBD00E207B90FEAF7
:1000500006B9369A00E00093600000E0009361006A
:1000600000E00093630000E00093640000E0009370
:10007000650000E0009366007894909166009130EE
:10008000A9F0809163008093600090916400A0913A
:100090006500AA0FAA0FAA0FAA0FAA0F9A0F909392
:1000A0006100890F8030C9F4C098E7CF00E008BB39
:1000B00000E002BB00E00093600000E000936100FC
:1000C00000E00093630000E00093640000E0009310
:1000D000650000E000936600D0CFC09ACECF1095A7
:1000E0001F3F19F0103039F01895C198C29A00914D
:1000F000600002BB1895C298C19A0091610002BBD2
:10010000189503B300952CE10223069506950093FC
:10011000650003B3009522E0022306950093660074
:10012000189505B135EE42EF50E05395031768F48A
:1001300062E1361B461B5D30C1F700E000936300AF
:1001400000E000936400369A1895041708F0F0CF89
:10015000513021F401E000936300F5CF5230F1F704
:1001600002E000936300EFCF5330C1F704E0009347
:100170006300E9CF543091F708E000936300E3CFC8
:10018000553061F700E100936300DDCF563031F761
:1001900000E200936300D7CF573001F700E40093EB
:1001A0006300D1CF5830D1F600E800936300CBCF85
:1001B0005930A1F601E000936400C5CF5A3071F6C2
:1001C00002E000936400BFCF5B3041F604E000938F
:1001D0006400B9CF5C3011F608E000936400B3CF3F
:0801E00000E100936400AFCFC1
:00000001FF
