:020000020000FC
:1000000012C018951895189518953DC04FC01895B1
:100010001895189518951895189518951895189578
:100020001895189518950FED0DBF0FEF07BB0FEF43
:1000300008BB0FE101BB00E602BB03E00ABB04E022
:100040000EBD02E009BF05E003BF0EEE0DBD05E8E1
:100050000CBDDBE0CBE04D2F409360004C2F409374
:100060006100789400E008BB909A4091600022D033
:1000700034D0909800E008BB919A409161001AD06A
:100080002CD09198EFCF0EEE0DBD05E80CBDC395B9
:1000900037D0CA3009F01895CC2732D0D39530D05C
:1000A000DA3009F01895DD272BD0189530D000E80C
:1000B00009BF1895E6ECF0E050E0E40FF51FC89595
:1000C000402D48BB0895217D13194D89813D0109BB
:1000D000FFDF05A38387A1E34500EFE1F5E5FA958E
:1000E000F1F7EA95D9F700000000089515E228EB32
:1000F0003AEE3A95F1F72A95D9F71A95C1F718957E
:100100004D2F409360004C2F409361001895D2E131
:0E011000CEE0F6DFEBCFDD27CC27F2DF18952F
:00000001FF
